{
  "_format": "hh3-artifact-1",
  "contractName": "MyContract",
  "sourceName": "contracts/rental.sol",
  "abi": [
    {
      "inputs": [
        {
          "internalType": "uint256",
          "name": "_rentAmount",
          "type": "uint256"
        },
        {
          "internalType": "uint256",
          "name": "_depositAmount",
          "type": "uint256"
        },
        {
          "internalType": "uint256",
          "name": "_duration",
          "type": "uint256"
        }
      ],
      "stateMutability": "nonpayable",
      "type": "constructor"
    },
    {
      "anonymous": false,
      "inputs": [
        {
          "indexed": false,
          "internalType": "address",
          "name": "by",
          "type": "address"
        }
      ],
      "name": "ContractCancelled",
      "type": "event"
    },
    {
      "anonymous": false,
      "inputs": [
        {
          "indexed": false,
          "internalType": "bool",
          "name": "isDamaged",
          "type": "bool"
        },
        {
          "indexed": false,
          "internalType": "address",
          "name": "reporter",
          "type": "address"
        }
      ],
      "name": "DamageReported",
      "type": "event"
    },
    {
      "anonymous": false,
      "inputs": [
        {
          "indexed": false,
          "internalType": "address",
          "name": "to",
          "type": "address"
        },
        {
          "indexed": false,
          "internalType": "uint256",
          "name": "amount",
          "type": "uint256"
        }
      ],
      "name": "DepositReleased",
      "type": "event"
    },
    {
      "anonymous": false,
      "inputs": [
        {
          "indexed": true,
          "internalType": "address",
          "name": "inspector",
          "type": "address"
        }
      ],
      "name": "InspectorConfirmed",
      "type": "event"
    },
    {
      "anonymous": false,
      "inputs": [
        {
          "indexed": true,
          "internalType": "address",
          "name": "inspector",
          "type": "address"
        }
      ],
      "name": "InspectorSet",
      "type": "event"
    },
    {
      "anonymous": false,
      "inputs": [
        {
          "indexed": false,
          "internalType": "uint256",
          "name": "month",
          "type": "uint256"
        },
        {
          "indexed": false,
          "internalType": "uint256",
          "name": "amount",
          "type": "uint256"
        }
      ],
      "name": "RentPaid",
      "type": "event"
    },
    {
      "anonymous": false,
      "inputs": [
        {
          "indexed": false,
          "internalType": "enum MyContract.ContractState",
          "name": "newState",
          "type": "uint8"
        }
      ],
      "name": "StateChanged",
      "type": "event"
    },
    {
      "anonymous": false,
      "inputs": [
        {
          "indexed": true,
          "internalType": "address",
          "name": "tenant",
          "type": "address"
        },
        {
          "indexed": false,
          "internalType": "uint256",
          "name": "amount",
          "type": "uint256"
        }
      ],
      "name": "TenantConfirmed",
      "type": "event"
    },
    {
      "anonymous": false,
      "inputs": [
        {
          "indexed": true,
          "internalType": "address",
          "name": "tenant",
          "type": "address"
        }
      ],
      "name": "TenantSet",
      "type": "event"
    },
    {
      "inputs": [],
      "name": "cancel",
      "outputs": [],
      "stateMutability": "payable",
      "type": "function"
    },
    {
      "inputs": [],
      "name": "confirmInspector",
      "outputs": [],
      "stateMutability": "payable",
      "type": "function"
    },
    {
      "inputs": [],
      "name": "confirmTenant",
      "outputs": [],
      "stateMutability": "payable",
      "type": "function"
    },
    {
      "inputs": [
        {
          "internalType": "bool",
          "name": "value",
          "type": "bool"
        }
      ],
      "name": "damageStatus",
      "outputs": [],
      "stateMutability": "nonpayable",
      "type": "function"
    },
    {
      "inputs": [],
      "name": "getContractBalance",
      "outputs": [
        {
          "internalType": "uint256",
          "name": "",
          "type": "uint256"
        }
      ],
      "stateMutability": "view",
      "type": "function"
    },
    {
      "inputs": [],
      "name": "getDeposit",
      "outputs": [
        {
          "internalType": "uint256",
          "name": "",
          "type": "uint256"
        }
      ],
      "stateMutability": "view",
      "type": "function"
    },
    {
      "inputs": [],
      "name": "getDuration",
      "outputs": [
        {
          "internalType": "uint256",
          "name": "",
          "type": "uint256"
        }
      ],
      "stateMutability": "view",
      "type": "function"
    },
    {
      "inputs": [],
      "name": "getInspector",
      "outputs": [
        {
          "internalType": "address",
          "name": "",
          "type": "address"
        }
      ],
      "stateMutability": "view",
      "type": "function"
    },
    {
      "inputs": [],
      "name": "getLandlord",
      "outputs": [
        {
          "internalType": "address",
          "name": "",
          "type": "address"
        }
      ],
      "stateMutability": "view",
      "type": "function"
    },
    {
      "inputs": [],
      "name": "getMonth",
      "outputs": [
        {
          "internalType": "uint256",
          "name": "",
          "type": "uint256"
        }
      ],
      "stateMutability": "view",
      "type": "function"
    },
    {
      "inputs": [],
      "name": "getMonthlyRent",
      "outputs": [
        {
          "internalType": "uint256",
          "name": "",
          "type": "uint256"
        }
      ],
      "stateMutability": "view",
      "type": "function"
    },
    {
      "inputs": [],
      "name": "getPendingInspector",
      "outputs": [
        {
          "internalType": "address",
          "name": "",
          "type": "address"
        }
      ],
      "stateMutability": "view",
      "type": "function"
    },
    {
      "inputs": [],
      "name": "getPendingTenant",
      "outputs": [
        {
          "internalType": "address",
          "name": "",
          "type": "address"
        }
      ],
      "stateMutability": "view",
      "type": "function"
    },
    {
      "inputs": [],
      "name": "getTenant",
      "outputs": [
        {
          "internalType": "address",
          "name": "",
          "type": "address"
        }
      ],
      "stateMutability": "view",
      "type": "function"
    },
    {
      "inputs": [],
      "name": "releaseDeposit",
      "outputs": [],
      "stateMutability": "nonpayable",
      "type": "function"
    },
    {
      "inputs": [
        {
          "internalType": "address",
          "name": "inspector",
          "type": "address"
        }
      ],
      "name": "setInspector",
      "outputs": [],
      "stateMutability": "nonpayable",
      "type": "function"
    },
    {
      "inputs": [
        {
          "internalType": "address",
          "name": "tenant",
          "type": "address"
        }
      ],
      "name": "setTenant",
      "outputs": [],
      "stateMutability": "nonpayable",
      "type": "function"
    },
    {
      "inputs": [],
      "name": "state",
      "outputs": [
        {
          "internalType": "enum MyContract.ContractState",
          "name": "",
          "type": "uint8"
        }
      ],
      "stateMutability": "view",
      "type": "function"
    },
    {
      "inputs": [],
      "name": "tenantPays",
      "outputs": [],
      "stateMutability": "payable",
      "type": "function"
    }
  ],
  "bytecode": "0x60806040525f805460ff191681556001556002805460ff60a01b199081169091556009805490911690553480156033575f5ffd5b506040516110083803806110088339810160408190526050916072565b600280546001600160a01b03191633179055600492909255600555600355609c565b5f5f5f606084860312156083575f5ffd5b5050815160208301516040909301519094929350919050565b610f5f806100a95f395ff3fe608060405260043610610110575f3560e01c8063859e6e341161009d578063c399ec8811610062578063c399ec8814610284578063d35e213214610298578063dec469e4146102a0578063ea8a1af0146102bd578063f502236d146102c5575f5ffd5b8063859e6e341461020757806397695ddd14610224578063ad2e8c9b1461022c578063c0f1b23a14610240578063c19d93fb1461025f575f5ffd5b80632e74a4de116100e35780632e74a4de1461018657806339492d13146101a557806346289c4c146101c25780634e5cbf61146101d65780636f9fb98a146101f5575f5ffd5b80630b3bb0241461011457806315a1ae721461014a5780631d8f7892146101545780631e9810e914610172575b5f5ffd5b34801561011f575f5ffd5b506007546001600160a01b03165b6040516001600160a01b0390911681526020015b60405180910390f35b6101526102e2565b005b34801561015f575f5ffd5b506001545b604051908152602001610141565b34801561017d575f5ffd5b5061015261050a565b348015610191575f5ffd5b506101526101a0366004610e3e565b610683565b3480156101b0575f5ffd5b506006546001600160a01b031661012d565b3480156101cd575f5ffd5b50600454610164565b3480156101e1575f5ffd5b506101526101f0366004610e3e565b610784565b348015610200575f5ffd5b5047610164565b348015610212575f5ffd5b506009546001600160a01b031661012d565b610152610889565b348015610237575f5ffd5b50600354610164565b34801561024b575f5ffd5b5061015261025a366004610e6b565b610973565b34801561026a575f5ffd5b505f546102779060ff1681565b6040516101419190610e9e565b34801561028f575f5ffd5b50600554610164565b610152610a36565b3480156102ab575f5ffd5b506008546001600160a01b031661012d565b610152610c51565b3480156102d0575f5ffd5b506002546001600160a01b031661012d565b6007546001600160a01b031661033f5760405162461bcd60e51b815260206004820152601860248201527f4e6f2074656e616e7420636f6e6669726d65642079657421000000000000000060448201526064015b60405180910390fd5b6007546001600160a01b0316331461038f5760405162461bcd60e51b81526020600482015260136024820152724f6e6c792074656e616e742063616e2070617960681b6044820152606401610336565b60045434146103e05760405162461bcd60e51b815260206004820152601a60248201527f4d757374207061792065786163742072656e7420616d6f756e740000000000006044820152606401610336565b60025f5460ff1660038111156103f8576103f8610e8a565b146104365760405162461bcd60e51b815260206004820152600e60248201526d4d7573742062652061637469766560901b6044820152606401610336565b6002546004546040516001600160a01b039092169181156108fc0291905f818181858888f1935050505015801561046f573d5f5f3e3d5ffd5b507fa0d112ed080c1b1a94b838ad981a23746be2a4670fd4bf157224e72cdd5dfdde6001546004546040516104ae929190918252602082015260400190565b60405180910390a160018054905f6104c583610ed8565b919050555060035460015403610508575f805460ff191660039081179091556040515f516020610f0a5f395f51905f52916104ff91610e9e565b60405180910390a15b565b60035f5460ff16600381111561052257610522610e8a565b1461056f5760405162461bcd60e51b815260206004820152601760248201527f436f6e7472616374206d75737420626520656e646564210000000000000000006044820152606401610336565b600954600160a01b900460ff1615610602576002546005546040516001600160a01b039092169181156108fc0291905f818181858888f193505050501580156105ba573d5f5f3e3d5ffd5b50600254600554604080516001600160a01b03909316835260208301919091527f5b035be76c6224ae570d8d05097177ed728aab6364d39f1ec803b4126fd25fce91016104ff565b6007546005546040516001600160a01b039092169181156108fc0291905f818181858888f1935050505015801561063b573d5f5f3e3d5ffd5b50600754600554604080516001600160a01b03909316835260208301919091527f5b035be76c6224ae570d8d05097177ed728aab6364d39f1ec803b4126fd25fce91016104ff565b6007546001600160a01b0316156106e85760405162461bcd60e51b8152602060048201526024808201527f54656e616e7420616c726561647920636f6e6669726d656420616e64206c6f636044820152636b65642160e01b6064820152608401610336565b6002546001600160a01b0316331461073b5760405162461bcd60e51b81526020600482015260166024820152754f6e6c79206c616e646c6f72642063616e207365742160501b6044820152606401610336565b600680546001600160a01b0319166001600160a01b0383169081179091556040517fef8ec0930d1c7993d571f11f4cc4b8581e44eb34583b7ffb2d059a9852d73a11905f90a250565b6009546001600160a01b0316156107ed5760405162461bcd60e51b815260206004820152602760248201527f496e73706563746f7220616c726561647920636f6e6669726d656420616e64206044820152666c6f636b65642160c81b6064820152608401610336565b6002546001600160a01b031633146108405760405162461bcd60e51b81526020600482015260166024820152754f6e6c79206c616e646c6f72642063616e207365742160501b6044820152606401610336565b600880546001600160a01b0319166001600160a01b0383169081179091556040517f85efe0bd14bdd4883841c24d07b92ebda1b0bfb002e084d7a6cd230ced659e1e905f90a250565b6008546001600160a01b031633146108e35760405162461bcd60e51b815260206004820152601b60248201527f4f6e6c7920696e73706563746f722063616e20636f6e6669726d2100000000006044820152606401610336565b60088054600980546001600160a01b0383166001600160a01b0319918216179091551690555f805460ff191660019081179091556040515f516020610f0a5f395f51905f529161093291610e9e565b60405180910390a16009546040516001600160a01b03909116907f31f9079998fd87926f1497608e60c5728dfae11ff533cede868d2e0c29d3ff72905f90a2565b6009546001600160a01b031633146109c65760405162461bcd60e51b815260206004820152601660248201527513db9b1e481a5b9cdc1958dd1bdc8818d85b881cd95d60521b6044820152606401610336565b60098054821515600160a01b90810260ff60a01b198316811793849055604080519290940460ff16151582526001600160a01b0390811692169190911760208201527f9d5e8a8db550490d0410279058181d01e34d1c8ae0d308b1195bbf62bc1eaf90910160405180910390a150565b6009546001600160a01b0316610a995760405162461bcd60e51b815260206004820152602260248201527f496e73706563746f72206d75737420636f6e6669726d206265666f726520796f604482015261752160f01b6064820152608401610336565b6006546001600160a01b03163314610af35760405162461bcd60e51b815260206004820152601860248201527f4f6e6c792074656e616e742063616e20636f6e6669726d2100000000000000006044820152606401610336565b600554600454610b039190610ef0565b3414610b5d5760405162461bcd60e51b815260206004820152602360248201527f4d757374207061792065786163742072656e742b6465706f73697420616d6f756044820152626e742160e81b6064820152608401610336565b60068054600780546001600160a01b038084166001600160a01b03199283161790925590911690915560025460045460405191909216916108fc811502915f818181858888f19350505050158015610bb7573d5f5f3e3d5ffd5b5060018054905f610bc783610ed8565b90915550505f805460ff191660029081179091556040515f516020610f0a5f395f51905f5291610bf691610e9e565b60405180910390a16007546005546004546001600160a01b03909216917f186cf0af93a28b3503cc50a99e2ffcaade168b41f96cd8452f658dddf490007291610c3e91610ef0565b60405190815260200160405180910390a2565b6007546001600160a01b0316331480610c7457506002546001600160a01b031633145b610ccb5760405162461bcd60e51b815260206004820152602260248201527f4f6e6c79206c616e646c6f7264202f2074656e616e742063616e2063616e63656044820152616c2160f01b6064820152608401610336565b60025f5460ff166003811115610ce357610ce3610e8a565b14610d3e5760405162461bcd60e51b815260206004820152602560248201527f436f6e74726163742068617320656e6465642c20796f752063616e27742063616044820152646e63656c2160d81b6064820152608401610336565b6007546001600160a01b03163303610d8f576002546005546040516001600160a01b039092169181156108fc0291905f818181858888f19350505050158015610d89573d5f5f3e3d5ffd5b50610ddc565b6002546001600160a01b03163303610ddc576007546005546040516001600160a01b039092169181156108fc0291905f818181858888f19350505050158015610dda573d5f5f3e3d5ffd5b505b5f805460ff191660039081179091556040515f516020610f0a5f395f51905f5291610e0691610e9e565b60405180910390a16040513381527f127a6f1a35dab59c491a32a71869783bdb5702256f5709cb1e60f322ac1529d4906020016104ff565b5f60208284031215610e4e575f5ffd5b81356001600160a01b0381168114610e64575f5ffd5b9392505050565b5f60208284031215610e7b575f5ffd5b81358015158114610e64575f5ffd5b634e487b7160e01b5f52602160045260245ffd5b6020810160048310610ebe57634e487b7160e01b5f52602160045260245ffd5b91905290565b634e487b7160e01b5f52601160045260245ffd5b5f60018201610ee957610ee9610ec4565b5060010190565b80820180821115610f0357610f03610ec4565b9291505056fe551dc40198cc79684bb69e4931dba4ac16e4598792ee1c0a5000aeea366d7bb6a2646970667358221220d0a7e76cac46f5d0852648f7055f202dd1d1a3433348e889c3a95674f029547264736f6c634300081c0033",
  "linkReferences": {},
  "deployedLinkReferences": {},
  "immutableReferences": {},
  "inputSourceName": "project/contracts/rental.sol",
  "buildInfoId": "solc-0_8_28-8ad932fba926b75e80f0449a0bca8aff9bebad2e"
}